:04000000B4EF00F069
:10000800FACF03F0FBCF04F0E9CF05F0EACF06F012
:10001800E1CF07F0E2CF08F0D9CF09F0DACF0AF044
:10002800F3CF0BF0F4CF0CF0F6CF0DF0F7CF0EF0C6
:10003800F8CF0FF0F5CF10F09EAA10D00001600E97
:100048002A24D96E0001000E2B20DA6EAECFDFFF16
:100058002A4A2B2A000E2F6E000E2E6EF2A463D0B1
:10006800F294000ED76E800ED66EABB402D0ABA25F
:1000780005D0AB9EAC8AAB88AC98AB8E2E4A2F2AA3
:100088002F50800A800F0A0ED8B42E5CD8A021D039
:100098002B50800A800F080ED8B42A5CD8A011D043
:1000A80000016051016E026A4250021802E141509B
:1000B8000118D8A406D0000140802AC02CF02BC01B
:1000C8002DF0000E2B6E000E2A6E000E2F6E000E05
:1000D8002E6E000140A2829A000140B2ACA223D049
:1000E800828A3150800A016E3250305C3350800A67
:1000F8000158D8B00DD000018D0E3024D96E000102
:10010800000E3120DA6EDF50AD6E304A312A0BD046
:10011800000E316E000E306E000E336E000E326E21
:10012800829A0001409210C0F5FF0FC0F8FF0EC080
:10013800F7FF0DC0F6FF0CC0F4FF0BC0F3FF0AC0B9
:10014800DAFF09C0D9FF08C0E2FF07C0E1FF06C017
:10015800EAFF05C0E9FF04C0FBFF03C0FAFF110076
:1001680017EF03F0000E0F013A6F9F0E946E000E0A
:10017800826EB896AC940C0EAF6EAC8AAB88AC9815
:10018800AB8E9D8A9F8AC30ED56EF28AF28CF28E50
:10019800000140A0FDD700016151030AD8A4C6D0D0
:1001A8000001626705D0410E0001635DD8B006D03A
:1001B800000120EE65F0400EDF6416D0070E000146
:1001C8008D6F810E00018E6F020E00018F6F00018E
:1001D800000E126E00018D0E116E000E146E030ECD
:1001E800136EE9EC02F0DAD160C08DF061C08EF0D8
:1001F80000016551020DF3CF3AF0F4CF3BF03AC05D
:100208008FF0F29E51EC03F0000163C026F0276ADC
:100218001BD0A00E61EC03F026506CEC03F077ECD9
:1002280003F0A10E61EC03F00101000E2624D96E43
:100238000101010E2720DA6E010E3BEC03F0DF6EA0
:1002480077EC03F0264A272A2750800A1F6E3A5077
:10025800265C3B50800A1F58D8A0DBD7F28E0001DD
:1002680063C028F0296A1AD00101000E2824D96E2B
:100278000101010E2920DA6E030E28241F6E000EDC
:100288002920206E00018D0E1F24E16E0001000E52
:100298002020E26EDFCFE7FF284A292A2950800A6A
:1002A8001F6E3A50285C3B50800A1F58D8A0DCD7F4
:1002B8000001000E126E00018D0E116E030E3A241D
:1002C800136E000E3B20146EE9EC02F011C03EF0F4
:1002D80012C03FF0030E3A241F6E000E3B20206E22
:1002E80000018D0E1F24D96E0001000E2020DA6E49
:1002F8003EC0DFFF040E3A241F6E000E3B20206E26
:1003080000018D0E1F24D96E0001000E2020DA6E28
:100318003FC021F021C022F0236A2250DF6E050E73
:100328003A24326E000E3B20336E4AD100016151EF
:10033800060AD8A47AD0000162671CD0000120EE1A
:1003480063F0400EDF6416D0070E00018D6F810E3A
:1003580000018E6F020E00018F6F0001000E126EF9
:1003680000018D0E116E000E146E030E136EE9EC73
:1003780002F014D160C08DF061C08EF000016351AD
:10038800020DF3283C6EF29E51EC03F0A00E61ECD6
:1003980003F03C046CEC03F0000164516CEC03F0D6
:1003A80077EC03F0EA0E1F6EC30EE82EFED71F2E61
:1003B800FCD700F0EA0E1F6EC30EE82EFED71F2EE4
:1003C800FCD700F0A00E61EC03F03C506CEC03F09D
:1003D800000165516CEC03F077EC03F0F28E62C01B
:1003E8008FF063C090F064C091F065C092F0000196
:1003F800000E126E00018D0E116E000E146E060EA8
:10040800136EE9EC02F011C03EF012C03FF03EC09E
:1004180093F03FC01FF01FC020F0216A2050000158
:10042800946F000E336E080ECAD000016151100A95
:10043800D8A49FD00001626705D0410E0001635D1A
:10044800D8B006D0000120EE65F0400EDF6416D06B
:10045800070E00018D6F810E00018E6F020E0001E4
:100468008F6F0001000E126E00018D0E116E000ECE
:10047800146E030E136EE9EC02F090D060C08DF09C
:1004880061C08EF062C08FF063C090F064C091F0DC
:1004980065C092F00001000E126E00018D0E116E03
:1004A800000E146E060E136EE9EC02F011C03EF059
:1004B80012C03FF03EC093F03FC01FF01FC020F0B5
:1004C800216A20500001946FF29E51EC03F0000164
:1004D80063C024F0256A3DD0D88024343C6EA00E39
:1004E80061EC03F03C046CEC03F0000167516CEC28
:1004F80003F077EC03F0EA0E1F6EC30EE82EFED76A
:100508001F2EFCD700F0EA0E1F6EC30EE82EFED792
:100518001F2EFCD700F0A00E61EC03F03C506CECF1
:1005280003F0000168516CEC03F077EC03F0EA0E7D
:100538001F6EC30EE82EFED71F2EFCD700F0EA0E62
:100548001F6EC30EE82EFED71F2EFCD700F0244ADC
:10055800252A000165511F6E206A2550800A216EE8
:100568001F50245C2050800A2158D8A0B5D7F28E9D
:1005780058D7070E00018D6F810E00018E6F010E96
:1005880000018F6F0001000E126E00018D0E116EBA
:10059800000E146E030E136EE9EC02F011C03EF06B
:1005A80012C03FF03EC090F03FC01FF01FC020F0C7
:1005B800216A20500001916F000E336E050E326ED5
:1005C8000001408200014090E3D5186819681ED0E8
:1005D80011C0D9FF12C0DAFFDF501818176E114A80
:1005E800122A1950186E196A1750020DFF0EF324BB
:1005F800F66E7D0EF420F76E0900F5CF15F00900B0
:10060800F5CF16F01550181A1650191A1306D8A057
:1006180014061328D8B41428D8A4DAD718C011F0AF
:1006280019C012F0120001EE00F0460EEE6AE8065C
:10063800FDE100EE60F0730EEE6AE806FDE1406A47
:1006480000EE2AF0160EEE6AE806FDE1200EF66EC0
:10065800070EF76E000EF86E0900F5CF41F009009D
:10066800F5CF42F0000EF86E0001B6EF00F0116E03
:10067800000E136E000E126EC586C7A0FED7C9CF36
:1006880012F0136A116603D08BEC03F002D086ECEB
:1006980003F07FEC03F012501200000E0F013A6FC6
:1006A80094869488800EC76E280EC66E000EC56E9E
:1006B800130EC86E9D869E961200126EC580C5B038
:1006C800FED79E96C7A6120012506CEC03F01200DB
:1006D800116E11C0C9FF7FEC03F0C5AC02D0010E4A
:1006E8001200020E12007FEC03F0C584C5B4FED7D9
:1006F8009E96C7501200A1B6FED7C7A0C7B4FDD7B3
:100708009E961200C58AC588C5A81200FDD7C59A4D
:0A071800C588C5A81200FDD7070030
:107DFE00000000C1C081C1400101C3C00380024127
:107E0E00C201C6C006800741C70005C1C581C44076
:107E1E000401CCC00C800D41CD000FC1CF81CE40EE
:107E2E000E000AC1CA81CB400B01C9C009800841AE
:107E3E00C801D8C018801941D9001BC1DB81DA40B6
:107E4E001A001EC1DE81DF401F01DDC01D801C41F6
:107E5E00DC0014C1D481D5401501D7C0178016415E
:107E6E00D601D2C012801341D30011C1D181D040AE
:107E7E001001F0C030803141F10033C1F381F24086
:107E8E00320036C1F681F7403701F5C035803441F6
:107E9E00F4003CC1FC81FD403D01FFC03F803E41EE
:107EAE00FE01FAC03A803B41FB0039C1F981F8402E
:107EBE00380028C1E881E9402901EBC02B802A4116
:107ECE00EA01EEC02E802F41EF002DC1ED81EC4076
:107EDE002C01E4C024802541E50027C1E781E6405E
:107EEE00260022C1E281E3402301E1C0218020412E
:107EFE00E001A0C060806141A10063C1A381A240E6
:107F0E00620066C1A681A7406701A5C06580644175
:107F1E00A4006CC1AC81AD406D01AFC06F806E41ED
:107F2E00AE01AAC06A806B41AB0069C1A981A840AD
:107F3E00680078C1B881B9407901BBC07B807A41B5
:107F4E00BA01BEC07E807F41BF007DC1BD81BC40F5
:107F5E007C01B4C074807541B50077C1B781B6405D
:107F6E00760072C1B281B3407301B1C071807041AD
:107F7E00B00050C190819140510193C05380524145
:107F8E00920196C056805741970055C195819440F5
:107F9E0054019CC05C805D419D005FC19F819E40ED
:107FAE005E005AC19A819B405B0199C0598058412D
:107FBE00980188C04880494189004BC18B818A4015
:107FCE004A004EC18E818F404F018DC04D804C4175
:107FDE008C0044C184818540450187C0478046415D
:107FEE00860182C042804341830041C1818180402D
:027FFE00400041
:020000040020DA
:08000000FFFFFFFFFFFFFFFF00
:020000040030CA
:0E000000FF221F3CFFBF85FF0FC00FE00F4027
:00000001FF
